:020000040800F2
:10000000000400204F130008B1020008B3020008EA
:10001000B7020008BB020008BF0200080000000091
:10002000000000000000000000000000C302000803
:10003000C502000800000000C7020008C90200084D
:100040006F1300086F1300086F1300086F13000888
:100050006F1300086F1300086F130008BF16000825
:100060006F1300086F1300086F1300086F13000868
:100070006F1300086F1300086F1300086F13000858
:100080006F1300086F1300086F1300086F13000848
:100090006F1300086F1300086F1300086F13000838
:1000A0006F1300086F1300086F1300086F13000828
:1000B0006F1300086F1300086F1300086F13000818
:1000C0006F1300086F1300086F1300086F13000808
:1000D0006F130008CB020008D90200086F13000854
:1000E0006F1300086F1300086F1300086F130008E8
:1000F0006F1300086F1300086F1300086F130008D8
:100100006F1300086F1300086F1300086F130008C7
:100110006F1300086F1300086F1300086F130008B7
:100120006F1300086F1300086F1300086F130008A7
:1001300000F002F800F03CF80AA090E8000C8244BD
:100140008344AAF10107DA4501D100F031F8AFF29A
:10015000090EBAE80F0013F0010F18BFFB1A43F0A5
:1001600001031847D41C0000F41C0000103A24BFFF
:1001700078C878C1FAD8520724BF30C830C144BF0C
:1001800004680C607047000000230024002500264E
:10019000103A28BF78C1FBD8520728BF30C148BFEA
:1001A0000B6070471FB5AFF300801FBD10B510BDC9
:1001B00001F0DFFD1146FFF7F5FF00F058F801F000
:1001C000FDFDFFF7F3FF01F003FE000000B585B071
:1001D0004FF4165001900020ADF80800ADF80A0069
:1001E000ADF80C000C20ADF80E000020ADF81000AA
:1001F00001A92D4800F081FC012240F225512A4836
:1002000000F0F4FC012240F22771274800F0EEFCD8
:100210000121254800F0DEFC4FF40070ADF800002D
:1002200003208DF8020018208DF8030069461F484E
:1002300000F02EF94FF48060ADF8000004208DF836
:10024000030003208DF802006946184800F020F9E9
:1002500005B000BD10B501F04EF8012144F27C005C
:1002600000F0A0FB0121480400F0A9FB10BD10B56F
:10027000FFF7F0FFFFF7AAFF01F0B2F900BFFEE7BA
:1002800070B505460C460BE014F8011B284600F03B
:100290000BFD00BF4021284600F05DFD0028F9D08D
:1002A00020780028F0D170BD0038014000080140DE
:1002B000704700BFFEE700BFFEE700BFFEE700BFDC
:1002C000FEE7704770477047704710B540F2255100
:1002D000024800F04CFD10BD70470000003801409E
:1002E00032490143324A1160704770B50021002342
:1002F0000F22C4780CB32E4C246804F4E064C4F5D7
:10030000E064210AC1F10403CA40447804FA03F10D
:100310008478144021430901264C0678A1550478BD
:1003200004F01F050124AC4005786D114FF0E02664
:1003300006EB8505C5F8004109E0047804F01F04C8
:100340000125A5401C4C0678761144F8265070BD56
:100350001A4A0A400243164B1B1F1A60704741B1EC
:10036000134A121D126802434FF0E023C3F8102D08
:1003700007E00F4A121D126882434FF0E023C3F8D2
:10038000102D7047042808D14FF0E021096941F091
:1003900004014FF0E022116107E04FF0E02109690C
:1003A00021F004014FF0E022116170470000FA05CE
:1003B0000CED00E000E400E080E100E080FFFF1FC2
:1003C00010B50446C149601A8C422FD009DCC048E0
:1003D000201810D0B0F5806F16D0B0F5006F4AD15C
:1003E0001BE0B0F5806F2AD0B0F5006F30D0B0F5CB
:1003F000406F40D135E00121042000F0EDFA0021EA
:10040000042000F0E9FA37E00121082000F0E4FAC6
:100410000021082000F0E0FA2EE00121102000F079
:10042000DBFA0021102000F0D7FA25E0012120207E
:1004300000F0D2FA0021202000F0CEFA1CE00121C9
:10044000402000F0C9FA0021402000F0C5FA13E076
:100450000121802000F0C0FA0021802000F0BCFAC9
:100460000AE00121080200F0B7FA00214FF4807081
:1004700000F0B2FA00E000BF00BF10BD10B50121CE
:10048000084600F0A9FA0021012000F0A5FA10BDED
:10049000F0B500220023002400250026002791F853
:1004A00003C00CF00F0291F803C01CF0100F03D032
:1004B00091F802C04CEA0202B1F800C01CF0FF0F34
:1004C00031D0066800242BE04FF0010C0CFA04F543
:1004D000B1F800C00CEA0503AB4220D1A5004FF0F3
:1004E0000F0C0CFA05F7BE4302FA05FC4CEA0606AF
:1004F00091F803C0BCF1280F06D14FF0010C0CFAA3
:1005000004FCC0F814C00AE091F803C0BCF1480F25
:1005100005D14FF0010C0CFA04FCC0F810C0641CAB
:10052000082CD1D30660B1F800C0BCF1FF0F34DD58
:10053000466800242EE004F1080C4FF0010E0EFA7C
:100540000CF5B1F800C00CEA0503AB4221D1A500BF
:100550004FF00F0C0CFA05F7BE4302FA05FC4CEA0B
:10056000060691F803C0BCF1280F05D104F1080C70
:100570000EFA0CFEC0F814E091F803C0BCF1480F6D
:1005800007D104F1080C4FF0010E0EFA0CFEC0F872
:1005900010E0641C082CCED34660F0BD4FF6FF710E
:1005A0000180022181700421C17070470246002041
:1005B00093680B4201D0012000E000207047014603
:1005C000886880B2704702460020D3680B4201D091
:1005D000012000E0002070470146C86880B27047E3
:1005E00001617047416170470AB1016100E04161FA
:1005F0007047C16070474FF480320A438261816165
:1006000082618269826970470022324B1A684FF614
:1006100080731A4042EA00120A432E4B1A60704758
:100620002D49C8617047F0B5002200230025002441
:10063000284E7568C0F3034482B200F44016B6F544
:10064000401F08D125F07065224E766826F070664E
:10065000204F7E6012E000F48016B6F5801F06D1B0
:10066000032606FA04F39D4345F0706506E0460D47
:10067000360102FA06F6B54345F0706521B1460D24
:10068000360102FA06F63543124E7560F0BD30B5FC
:1006900000228B071C0F0F2303FA04F20D4B0833C3
:1006A0008C1053F8244094438D1043F825408C104F
:1006B00053F824308C07240F00FA04F42343054C2C
:1006C00008348D1044F8253030BD0000001401407E
:1006D00000F8FEBF0000014000002042DA48006838
:1006E00040F00100D849086008464068D7490840F2
:1006F000D549486008460068D5490840D249086095
:100700000846006820F4802008600846406820F40D
:10071000FE004860002088607047CB49096821F4DA
:100720008031C94A11601146096821F480211160A5
:10073000B0F5803F03D0B0F5802F0ED106E0C2495E
:10074000096841F48031C04A116007E0BE49096878
:1007500041F4A021BC4A116000E000BF00BF704717
:1007600010B501460022002300204A11012A02D1BF
:10077000B54C236806E0022A02D1B34C236A01E09B
:10078000B14C636A01F01F02012494401C4201D065
:10079000012000E0002010BD70B5002400250026D7
:1007A00000BF3120FFF7DCFF0646641C16B9B4F524
:1007B000A06FF6D13120FFF7D3FF08B1012500E08B
:1007C0000025284670BD00219F4A116821F0F801DC
:1007D00041EAC001116070479E49086070470022DD
:1007E000994B5A6822F47C1240EA01031A43964B53
:1007F0005A6070479749086670470021924A5168CD
:1008000021F003010143516070478F48406800F0B8
:100810000C00704700218C4A516821F0F00101431F
:10082000516070470021884A516821F4E06101431A
:10083000516070470021844A516821F4605141EAB7
:10084000C0015160704729B17F4A527A02437E4B02
:100850005A7206E07C4A527AC343DBB21A407A4BA2
:100860005A7270477B49D831086070470021764A38
:10087000516821F440410143516070470021724AA0
:1008800020321170704A82F82010012802D004280A
:100890000AD104E001216C4A2032117005E00521E3
:1008A000694A2032117000E000BF00BF70476A49FA
:1008B000086070476449096A0143634A11627047DE
:1008C000654944390860704730B500210022002393
:1008D00000245D4D6D6805F00C0121B1042905D09F
:1008E000082923D105E05D4D056022E05B4D0560E0
:1008F0001FE0554D6D6805F47012022505EB92421C
:10090000514D6D6805F480331BB9554D5543056055
:100910000BE04D4D6D6815F4003F03D0504D55432D
:10092000056002E04D4D5543056002E04B4D05600A
:1009300000BF00BF444D6D6805F0F0010909494D45
:100940006C5C0568E54045603F4D6D6805F4E0610D
:10095000090A444D6C5C4568E54085603A4D6D6818
:1009600005F46051C90A3F4D6C5C4568E540C560BF
:10097000354D6D6805F44041890B3A4D10356C5C7E
:10098000C568B5FBF4F5056130BD29B12E4A526941
:1009900002432D4B5A6104E02B4A526982432A4B91
:1009A0005A61704729B1284A92690243264B9A61DD
:1009B00004E0254A92698243234B9A61704729B12A
:1009C000214AD2690243204BDA6104E01E4AD2690F
:1009D00082431D4BDA61704729B11B4AD26802433A
:1009E000194BDA6004E0184AD2688243164BDA6089
:1009F000704729B1144A12690243134B1A6104E08B
:100A0000114A12698243104B1A61704712494039EA
:100A1000086070470F49C86470470B49C871704738
:100A20000948406A40F080700749486270470146B3
:100A30000020054A92680A4201D0012000E000200F
:100A40007047014988727047001002400000FFF8AB
:100A5000FFFFF6FE000042428004424200127A008C
:100A600000093D000000002010B50446D749601A77
:100A70008C422BD006DCD648201813D0B0F5806FFE
:100A800038D119E0B0F5806F2AD0B0F56C4F31D174
:100A900001218803FFF7A0FF00214FF48040FFF7FA
:100AA0009BFF28E001214804FFF7A3FF00214FF43A
:100AB0000030FFF79EFF1EE001218804FFF799FF39
:100AC00000214FF48020FFF794FF14E00121C804B7
:100AD000FFF78FFF00214FF40020FFF78AFF0AE0A5
:100AE00001210805FFF785FF00214FF48010FFF773
:100AF00080FF00E000BF00BF10BD2DE9F04786B0C9
:100B000004460D460026002700BF00BFB246A2469D
:100B1000268A4CF6FF700640E88806432682A6899E
:100B20004EF6F3100640A8882989084369890843CE
:100B30000643A681A68A4FF6FF400640A8890643D1
:100B4000A68201A8FFF7C0FE5446A248824501D103
:100B5000049F00E0039F07EBC70000EB0710296824
:100B60008900B0FBF1F86420B8FBF0F00601300911
:100B7000642101FB1089322101EB09106421B0FBD3
:100B8000F1F000F00F000643268106B0BDE8F087C3
:100B90004FF41651016000218180C18001810C2138
:100BA000418100218181704710B50022028A4FF2F5
:100BB000FF031A400B884C8823438C882343CC883E
:100BC00023431A43028210BD0021018041808180AD
:100BD000C180704721B1828942F40052828104E0D1
:100BE00082894DF6FF731A4082817047F0B5002468
:100BF0000025002600230346C1F3421401F01F051F
:100C0000012707FA05F6012C01D10C3304E0022C70
:100C100001D1103300E014331AB11F6837431F604D
:100C200002E01F68B7431F60F0BD10B51AB1838A98
:100C30000B43838204E0838ACC43A4B223408382A3
:100C400010BD028A4FF6F0731A400282028A0A43EC
:100C50000282704782894FF2FF731A408281828933
:100C60000A438281704721B1828942F00202828167
:100C700004E082894FF6FD731A4082817047028A30
:100C80004FF6DF731A400282028A0A4302827047DB
:100C900021B1028A42F48042028204E0028A4BF6C9
:100CA000FF731A4002827047C1F3080282807047C6
:100CB00001468888C0F308007047818941F001012E
:100CC00081817047028BD2B20283028B42EA0122F9
:100CD00002837047028B02F47F420283028B0A4335
:100CE0000283704721B1828A42F02002828204E0AE
:100CF000828A4FF6DF731A408282704721B1828A5E
:100D000042F01002828204E0828A4FF6EF731A40AA
:100D10008282704721B1828A42F00802828204E016
:100D2000828A4FF6F7731A4082827047828A4FF6A2
:100D3000FB731A408282828A0A438282704721B101
:100D4000828A42F00202828204E0828A4FF6FD73B8
:100D50001A40828270470246002013880B4201D05D
:100D6000012000E000207047CA430280704770B540
:100D700002460023002400250020C1F3421501F0A3
:100D80001F04012606FA04F4012D02D1968934408D
:100D900006E0022D02D1168A344001E0968A3440E2
:100DA0000B12012606FA03F31688334014B10BB177
:100DB000012000E0002070BD10B5002200230A12BF
:100DC00001249440A3B2DC43048010BD004C0040D9
:100DD00000BCFFBF00380140002050490860504966
:100DE000C1F804044D4908310860091D08604D48E8
:100DF0004A49143108607047817900294CD048492C
:100E0000D1F8001402689143454AC2F80014114613
:100E1000D1F8041402689143404A121D116001790F
:100E20003F4A1144D1F800140268114302793C4B47
:100E30001A44C2F800141946D1F808140268914304
:100E40001A46C2F808141146D1F80C1402689143EE
:100E5000324A0C3211604179102910D11946D1F86B
:100E60000814026811431A46C2F808141146D1F852
:100E70000C14026811431A46C2F80C1418E04179A8
:100E8000274A1144D1F80014026811434279244BD7
:100E90001A44C2F800140BE00179214A1144D1F838
:100EA00000140268914302791D4B1A44C2F80014E1
:100EB00070470021016001710C2141710021817195
:100EC00070471649103109680143154AC2F81014D9
:100ED000704701460020114A143212680A4201D0BC
:100EE000012000E0002070470C4914310860704771
:100EF000014600200022094B1B6803EA0102084B4F
:100F0000D3F814340B4202D00AB1012000E00020D3
:100F10007047024914310860704700000004014026
:100F200000000140FFFF070010B50446BD4820182F
:100F30000FD0B0F5806F16D0B0F5784F1DD10121DC
:100F40000803FFF749FD00214FF48050FFF744FDEF
:100F500014E001218803FFF74CFD00214FF480408D
:100F6000FFF747FD0AE00121C803FFF742FD00211A
:100F70004FF40040FFF73DFD00E000BF00BF10BD93
:100F800010B50022028802F441520B884C8823439A
:100F90008C882343CC8823430C8923434C892343E7
:100FA0008C892343CC8923431A430280838B4FF2DD
:100FB000FF74234083830B8A038210BD2DE9F04721
:100FC00086B004460D4600260227B0464FF00109C0
:100FD000B246A08B4FF240010840A083022020843B
:100FE000A68B2889022801D100BF31E0A88810B95A
:100FF0004FF0010901E04FF0020901A8FFF764FC7E
:10100000E888B0F5007F0BD1019800EB800040002C
:1010100029890902B0FBF1F0401D1FFA80FA0CE0AB
:101020004FEA491029894843019901EB81014900A0
:10103000B1FBF0F0401D1FFA80FA0A20BAFBF0FA6B
:101040000AF00108AAEB0800C0F34F074FEA08288E
:10105000022F01DBFF2F02DD02274FF0000847EAD5
:101060000800E98808432084288840F400606988E3
:101070000843A9880843698908430643A68306B044
:10108000BDE8F0870021018041808180C18001811D
:1010900041818181C1810721018270470021018046
:1010A00041808180C18002210181002141817047FE
:1010B00021B1028842F04002028004E002884FF62B
:1010C000BF731A400280704721B1828B42F4806264
:1010D000828304E0828B4FF6FF331A40828370478D
:1010E00070B5002300240B1101259D40ACB21AB14C
:1010F00085882543858004E08588E643B6B235407F
:10110000858070BD10B51AB183880B43838004E0DD
:101110008388CC43A4B22340838010BD8181704773
:10112000014688897047A1F57E42FF3A04D00288C3
:1011300042F48072028004E002884FF6FF631A4096
:101140000280704721B1828842F00402828004E06C
:1011500082884FF6FB731A408280704702884FF2F4
:10116000FF731A40028002880A4302807047018898
:1011700041F480510180704721B1028842F400524D
:10118000028004E002884DF6FF731A400280704727
:1011900002460020012901D0108B00E0908A7047A0
:1011A0000146088A7047B1F5804F04D1028842F4A5
:1011B0008042028004E002884BF6FF731A400280EE
:1011C00070470246002013890B4201D0012000E045
:1011D00000207047CA4302817047F0B502460020E4
:1011E00000230024002501F00F070126BE40B3B202
:1011F0000C110126A640B4B2968806EA04051689A9
:101200001E4202D00DB1012000E00020F0BD10B55B
:10121000002201F00F040123A3409AB2D3430381BB
:1012200010BD000000C8FFBF00200021434A126823
:1012300042F48032414B1A6000BF404A126802F407
:101240000031401C11B9B0F5A06FF6D13B4A1268CD
:1012500012F4003F01D0012100E00021012943D117
:10126000374A126842F01002354B1A601A4612686B
:1012700022F003021A601A46126842F002021A6053
:101280002E4A52682D4B5A601A4652685A601A46C6
:10129000526842F480625A601A46526822F47C1204
:1012A0005A601A46526842F4E8125A601A461268A6
:1012B00042F080721A6000BF204A126812F0007F6C
:1012C000FAD01E4A526822F003021C4B5A601A469A
:1012D000526842F002025A6000BF184A526802F097
:1012E0000C02082AF9D101E000BFFEE7704710B5F3
:1012F000FFF79AFF10BD10B51048006840F00100DC
:101300000E490860084640680E4908400B4948608D
:10131000084600680C49084008490860084600680B
:1013200020F4802008600846406820F4FE004860F1
:1013300000208860FFF7DBFF10BD000000100240B6
:10134000002002400000FFF8FFFFF6FE70470B4848
:1013500080470B4981F308880A480047FEE7FEE70B
:10136000FEE7FEE7FEE7FEE7FEE7FEE7FEE7FEE755
:1013700005480649044A064B704700004D13000813
:101380007802002031010008780000207802002057
:101390007800002000BF0100A0F10100FBD17047E0
:1013A00030B503460025002400BF08E0002403E018
:1013B0007820FFF7EFFF641C9C42F9D36D1C052DCC
:1013C000F4D330BD70B50024002500BF1DE000F04F
:1013D0002AFB6420FFF7E4FF00F066FB28B900F069
:1013E000F7F93220FFF7DCFF0DE00A20FFF7D8FF06
:1013F00000F01DFB28B900F0EBF93220FFF7D0FF19
:1014000001E0012503E0601CC4B2052CDFDB00BF56
:10141000284670BD08B50C20ADF8000003208DF8FB
:10142000020010208DF803006946AE48FFF730F83F
:101430000821AC48FFF7D4F80421AA48FFF7D0F8F8
:1014400008BD00B587B0012148F20800FFF7B7FAE0
:101450000121A548FFF7E7F83820ADF80400032084
:101460008DF8060018208DF8070001A99F48FFF7A6
:101470000FF84FF40070ADF8040003208DF806005B
:1014800010208DF8070001A99848FFF701F84FF4E4
:1014900080719648FFF7A4F800219548FFF708FEF1
:1014A0000020ADF808004FF48270ADF80A0000206B
:1014B000ADF80C000220ADF80E000020ADF81000D1
:1014C0004FF40070ADF812002820ADF81400002091
:1014D000ADF816000720ADF8180002A98448FFF700
:1014E0004FFD01218248FFF7E3FD07B000BD1FB5A6
:1014F00001211020FFF756FA0220ADF80000042069
:101500008DF8030003208DF8020069467548FEF748
:10151000BFFF01210220FFF7BAF80220029000204D
:101520008DF80C000C208DF80D0001208DF80E00B8
:1015300002A8FFF761FC0220FFF7C3FC0221694803
:10154000FFF74EF80220FFF7CFFC0220FFF7E1FC87
:1015500007208DF8040000208DF805008DF80600A6
:1015600001208DF8070001A8FEF7BFFE1FBD08B5DA
:1015700001210520FFF716FA4FF48070ADF8000046
:1015800018208DF8030003208DF8020069465948A1
:10159000FEF77EFF0620FFF740FA01210C20FFF73F
:1015A00001FA4FF4E070ADF8000003208DF802005E
:1015B00010208DF8030069464C48FEF769FF802132
:1015C0004A48FFF70DF808BD10B5FFF7D0FFFFF749
:1015D0008EFFFFF736FFFFF71DFF00F0F9F810BD93
:1015E00010B50024FFF7F0FF43A14848FEF748FE7E
:1015F00047A14648FEF744FE4AA14448FEF740FE94
:101600004BA14248FEF73CFE4DA14048FEF738FE94
:1016100000204E49087051E04C480078102815D041
:1016200003DC48B1012840D104E011283ED0312824
:101630003BD100E000BF3DE0012044490870FFF7C6
:10164000C1FE10B931204149087033E000F081FA41
:1016500004463FA12D48FEF713FE04F130012B484C
:10166000FFF722FB012C06D0022C09D0032C0CD052
:10167000042C14D10EE039A12448FEF701FE0FE03E
:101680003DA12248FEF7FCFD0AE041A11F48FEF7FC
:10169000F7FD05E045A11D48FEF7F2FD00E000BFA3
:1016A00000BF00202949087004E000BF002027493E
:1016B000087000BF00BF204600F00AFBACE710B581
:1016C0000220FFF715FC58B100F042F93DA10F4888
:1016D000FEF7D6FD0220FFF707FC0220FFF719FCFA
:1016E00010BD00000010014000023000000C01405D
:1016F000003C00400008014020B4AEBFDAD4CBD09B
:10170000D0D6D02E2E2E2E0D0A000000003801401B
:10171000BFDAC1EEA3BA31A1A2C1F7CBAEB5C60DF7
:101720000A00000032A1A2C9C1CBB80D0A00000016
:1017300033A1A2B0B4BCFCB4A5B7A20D0A0000004E
:1017400034A1A2C8ABC3F00D0A00000014000020B1
:101750000D0ACAB6B1F0C2EB3A000000A1B0C1F761
:10176000CBAEB5C6A1B1C3FCC1EECAB6B1F0B3C928
:10177000B9A60D0A00000000A1B0C9C1CBB8A1B143
:10178000C3FCC1EECAB6B1F0B3C9B9A60D0A0000D8
:10179000A1B0B0B4BCFCB4A5B7A2A1B1C3FCC1EE6A
:1017A000CAB6B1F0B3C9B9A60D0A0000A1B0C8AB62
:1017B000C3F0A1B1C3FCC1EECAB6B1F0B3C9B9A6BA
:1017C0000D0A0000BDF8C8EBD6D0B6CF0D0A000058
:1017D00010B54021E148FEF703FF6420FFF7E0FD6C
:1017E0004021DE48FEF7FEFE6420FFF7D9FD4021D0
:1017F000DA48FEF7F5FE6420FFF7D2FD4FF4807162
:10180000D648FEF7EFFE6420FFF7CAFD4FF4807163
:10181000D248FEF7E5FE6420FFF7C2FD10BD10B50B
:10182000062000F0DCF93521172000F0BCF9052076
:10183000FFF7B6FD062000F0D2F90321892000F061
:10184000B2F90520FFF7ACFD4321CF2000F0ABF942
:101850000520FFF7A5FD0221CB2000F0A4F903210C
:10186000112000F0A0F9BE480078402810D10021D6
:101870001E2000F098F90F21192000F094F918218A
:101880001B2000F090F92C211D2000F08CF90FE0B6
:1018900000211E2000F087F93F21192000F083F974
:1018A00048211B2000F07FF91F211D2000F07BF94B
:1018B0000520FFF775FD0421CD2000F074F94C21BF
:1018C000172000F070F90120FFF76AFD0021B92010
:1018D00000F069F94F21CF2000F065F9FF216F205A
:1018E00000F061F910BD10B508209D490870FFF7A0
:1018F00096FF0021BD2000F056F94821172000F086
:1019000052F90520FFF74CFD80213C2000F04BF9F7
:1019100007213E2000F047F9FF21382000F043F96D
:1019200007213A2000F03FF90021402000F03BF968
:101930000821422000F037F90021442000F033F95B
:101940000821462000F02FF90120FFF729FD10BDE6
:1019500010B500242B2000F042F9824908700021C4
:10196000292000F020F90021022000F01CF97D4818
:10197000007810F0100F19D0B22000F030F92128B3
:1019800014D1BF2000F02BF935280FD1BA2000F078
:1019900026F90446002C05DD042C03DC10207249D6
:1019A000087006E011207049087002E011206E49AD
:1019B000087000212B2000F0F6F800211C2000F018
:1019C000F2F80021292000F0EEF80021022000F0BA
:1019D000EAF800212B2000F0E6F80021BA2000F000
:1019E000E2F80021BC2000F0DEF80121082000F020
:1019F000DAF80021082000F0D6F810BD70B50025F7
:101A000000240BE0B22000F0EAF8212801D10125E2
:101A100006E00A20FFF7C4FC601CC4B20A2CF1DB0C
:101A200000BF284670BD10B5FFF75DFF10BD10B5B3
:101A30004321352000F0B7F809211C2000F0B3F84D
:101A40002021BD2000F0AFF80121082000F0ABF804
:101A50000520FFF7A5FC0021082000F0A4F80520D0
:101A6000FFF79EFCFFF7CAFF08B9002010BDFF2159
:101A7000B22000F098F80621372000F094F80621F3
:101A8000372000F090F80520FFF78AFC0B211C207E
:101A900000F089F81021292000F085F80021BD20F0
:101AA00000F081F80120E1E770B596B050222F498F
:101AB00002A800F029F92EA0006801900125002459
:101AC00041E0FFF79BFF08B900253EE001A8015D5A
:101AD000C12000F068F80021C32000F064F8042160
:101AE000082000F060F80120FFF75AFC00210820D0
:101AF00000F059F80120FFF753FC002612E004EB38
:101B0000840002A901EB8000805D00B90CE004EBC9
:101B1000840002AA02EB8000815D052000F043F8FA
:101B2000701CC6B2142EEADB00BF3146B92000F0AB
:101B30003AF8FF21B22000F036F80421372000F0F7
:101B400032F8601CC4B2042CBBDB00BF284616B0C0
:101B500070BD10B5C52000F042F810BD000C01406A
:101B6000150000201600002014000020E81D0008C9
:101B70000102030410B5044600BF02212648FFF706
:101B800020FB0028F9D021462348FFF7C7FA00BF01
:101B900001212148FFF715FB0028F9D01E48FFF767
:101BA000BFFAC0B210BD70B504460D464FF4807147
:101BB0001A48FEF717FD4FF400711848FEF712FDA2
:101BC0000420FFF7D7FF2046FFF7D4FF2846FFF792
:101BD000D1FF4FF480711148FEF702FD70BD70B562
:101BE00004464FF480710D48FEF7FCFC4FF4007181
:101BF0000A48FEF7F7FC0520FFF7BCFF2046FFF779
:101C0000B9FF0020FFF7B6FF05464FF48071034887
:101C1000FEF7E6FC284670BD003C0040000C014089
:101C20000CE0042207E0712101E04B1ED9B200292B
:101C3000FBDC531EDAB2002AF5DC401E0028F0D18E
:101C4000704710B508212F48FEF7CAFC40F6FF7018
:101C5000FFF7E6FF04212B48FEF7C2FC40F6FF70B9
:101C6000FFF7DEFF08212748FEF7BCFC40F6FF70B7
:101C7000FFF7D6FF04212348FEF7B4FC40F6FF70BF
:101C8000FFF7CEFF10BD10B508211E48FEF7AAFCD5
:101C900004211C48FEF7A6FC40F6FF70FFF7C0FFCA
:101CA00008211848FEF79CFC04211648FEF798FC12
:101CB00040F6FF70FFF7B4FF10BD704710B5082164
:101CC0001048FEF78DFC04210E48FEF789FC10BD7C
:101CD00010B50446012C06D0022C07D0032C08D0E6
:101CE000042C0CD108E0FFF7ACFF09E0FFF7CBFFB5
:101CF00006E0FFF7E2FF03E0FFF7E0FF00E000BFD0
:101D000000BF10BD0010014010B5203AC0F00B809C
:101D1000B1E81850203AA0E81850B1E81850A0E8EF
:101D20001850BFF4F5AF5FEA027C24BFB1E8185049
:101D3000A0E8185044BF18C918C0BDE810405FEAB9
:101D4000827C24BF51F8043B40F8043B08BF704735
:101D5000D20728BF31F8023B48BF11F8012B28BF3A
:101D600020F8023B48BF00F8012B704770477047CE
:101D70007047754600F028F8AE46050069465346A0
:101D800020F00700854618B020B5FFF7F1FABDE84E
:101D900020404FF000064FF000074FF000084FF0D2
:101DA000000B21F00701AC46ACE8C009ACE8C00963
:101DB000ACE8C009ACE8C0098D4670470446AFF3F3
:101DC00000802046FEF7FDF900487047180000200B
:101DD00003494FF01800ABBE704700000900000037
:101DE00026000200704700006C69752073687569F1
:101DF0002064656E67000000000000007368616E7B
:101E0000207368756F0000000000000000000000F3
:101E1000616E206A69616E206368752066610000EA
:101E2000000000007175616E206D696500000000A2
:101E30000000000000000000581E00080000002004
:101E4000180000006C010008701E00081800002037
:101E50006002000088010008000000000102030485
:101E60000102030406070809020406080000000036
:0400000508000131BD
:00000001FF
